:1000000055C0000070C000006EC000006CC0000051
:100010006AC0000068C0000066C0000064C0000044
:1000200062C0000060C000005EC000005CC0000054
:100030005AC0000058C0000056C0000054C0000064
:100040008BC3000050C000004EC000004CC0000038
:100050004AC0000048C0000046C0000044C0000084
:1000600042C0000040C000003EC000003CC0000094
:100070003AC0000038C0000036C0000034C00000A4
:1000800032C0000030C000002EC00000C601D10107
:10009000E001EB01F60120024F027302CB02D6020F
:1000A000E502F4020303170331033E0311241FBECC
:1000B000CFEFD0E1DEBFCDBF11E0A0E0B1E0E6E9D7
:1000C000FEE000E00BBF02C007900D92AE3BB1070F
:1000D000D9F721E0AEEBB1E001C01D92A73DB20718
:1000E000E1F785D5D6C68CCF81B3877881BB0895DB
:1000F000FC0120B381E090E002C0880F991F6A954F
:10010000E2F730E082239323892BA1F0DF01A25490
:10011000BE4F8C91811123C08091D1019091D20169
:100120006CE370E086D60097E9F4E254FE4F21E0DC
:1001300020830895DF01A254BE4F8C918130A9F431
:100140008091D1019091D2016CE370E072D6892B3D
:1001500079F4E254FE4F108281E090E0089580E04F
:1001600090E0089580E090E0089580E090E00895A8
:1001700080E090E00895BD9A80E48FBD8AE08EBD56
:1001800010927A001BBC1ABC089581E08093CE01C6
:1001900082E390E09093CB018093CA0186EF92E0D6
:1001A0009BBD8ABD08958CEB93E09BBD8ABD2FEF6C
:1001B00081EE94E0215080409040E1F700C00000C3
:1001C00086EF92E09BBD8ABD2FEF81EE94E0215037
:1001D00080409040E1F700C000008EE792E09BBDB8
:1001E0008ABD2FEF82E597E0215080409040E1F7F3
:1001F00000C000001BBC1ABC08958EED91E09BBDB1
:100200008ABD2FEF8BED95E0215080409040E1F7C3
:1002100000C0000088E392E09BBD8ABD2FEF8BED0C
:1002200095E0215080409040E1F700C000008CEC48
:1002300092E09BBD8ABD2FEF89EC98E02150804071
:100240009040E1F700C000001BBC1ABC0895CF939A
:10025000DF93CDB7DEB7C45AD1090FB6F894DEBF2D
:100260000FBECDBFAC0192E5E0E0F1E0DE011196FA
:1002700001900D929A95E1F792E5E2E5F1E0DE0159
:10028000AD5ABF4F01900D929A95E1F79091CE0132
:10029000911137C02091C20130E0F901EE0FFF1F2C
:1002A00083E590E08C0F9D1FE80FF91F80819181FD
:1002B000892B31F41092C20181E0FA01808321C0C0
:1002C000220F331FFE01E20FF31F818192819BBD3C
:1002D0008ABD81E08093CE018091C201E82FF0E0D9
:1002E000EE0FFF1F23E530E02C0F3D1FE20FF31F41
:1002F000208131813093CB012093CA018F5F80939D
:10030000C201CC55DF4F0FB6F894DEBF0FBECDBF94
:10031000DF91CF910895CF93DF93CDB7DEB7699783
:100320000FB6F894DEBF0FBECDBF9BE0E4EAF1E06C
:10033000DE01119601900D929A95E1F796E0EFEAB1
:10034000F1E0DE011C9601900D929A95E1F793E79A
:100350009A8B9FE39B8B98E79C8B9DE69D8B9BE7FD
:100360009E8B94E59F8B9CE5988F9EE5998F98B323
:100370009F6D98BB919AE091C501F091C601E8305C
:10038000F10508F0CCC0EA5BFF4F66C5C798CA010B
:100390006AE070E04ED5FE01E80FF91F818185BB50
:1003A000BEC0C698CA016AE070E043D5CB0166E0E2
:1003B00070E03FD5FE01E80FF91F818185BBAFC01A
:1003C0009198CA016CE370E034D5FE01E60FF71F87
:1003D000818185BBA4C0C498222311F0898104C007
:1003E000FE01E80FF11D848585BB99C0C3988091FB
:1003F000D501882341F0E091C501F091C601EC0FD1
:10040000FD1F86851BC0222341F0E091C501F091BC
:10041000C601EC0FFD1F828911C08DEC689F812DF4
:100420001124869586958695880F982F990F990F98
:10043000890F681BFE01E60FF11D818185BB6FC02E
:10044000C2988091D501882341F0E091C501F091D7
:10045000C601EC0FFD1F868520C0222341F0E091EC
:10046000C501F091C601EC0FFD1F828916C08DEC0D
:10047000689F612D11246695669566958BEA689F45
:10048000812D112486958695982F990F890F880FB5
:10049000681BFE01E60FF11D818185BB40C0C1983C
:1004A0008091D501882341F0E091C501F091C6010A
:1004B000EC0FFD1F868515C0222341F0E091C50198
:1004C000F091C601EC0FFD1F82890BC089E8689F7F
:1004D000612D1124629566956770FE01E60FF11D8E
:1004E000818185BB1CC0C0989091D501992341F0B2
:1004F000E091C501F091C601EC0FFD1F86850EC08D
:10050000222341F0E091C501F091C601EC0FFD1FDF
:10051000828904C0FE01E80FF11D848585BB8091AE
:10052000C5019091C601019687709078992324F4B3
:100530000197886F9F6F01969093C6018093C501C4
:1005400069960FB6F894DEBF0FBECDBFDF91CF9195
:100550000895CF93DF93CDB7DEB72B970FB6F894FE
:10056000DEBF0FBECDBF9BE0E4EAF1E0DE011196F5
:1005700001900D929A95E1F798B39F6D98BB919A6F
:10058000E091C301F091C401E830F10508F084C0A6
:10059000E25BFF4F61C4C798CB016AE070E049D4C9
:1005A000FE01E80FF91F818185BB76C0C698CB019B
:1005B0006AE070E03ED4CB0166E070E03AD4FE0120
:1005C000E80FF91F818185BB67C09198CB016CE36F
:1005D00070E02FD4CB016AE070E02BD4FE01E80F6D
:1005E000F91F818185BB58C0C498CB0168E572E0D2
:1005F00020D4CB0166E070E01CD4FE01E80FF91FA7
:10060000818185BB49C0C3989DEC899F912D1124A0
:10061000969596959695990F292F220F220F920F56
:10062000891BFE01E80FF11D818185BB35C0C29891
:100630009DEC899F812D1124869586958695899FAD
:10064000912D1124969596959695990F292F220F05
:10065000220F920F891BFE01E80FF11D818185BBDE
:100660001BC0C19899E2899F812D112482958F70BA
:10067000FE01E80FF11D818185BB0EC0C09890E09E
:1006800068EE73E0D6D3CB016AE070E0D2D3FE010E
:10069000E80FF91F818185BB8091C3019091C4014E
:1006A000019687709078992324F40197886F9F6F43
:1006B00001969093C4018093C3012B960FB6F894D2
:1006C000DEBF0FBECDBFDF91CF9108958FEF84BB0A
:1006D00087B38F6D87BB899A15BA88B38F6D88BB36
:1006E000919A08958FEF8ABB1BBA08958091D1012A
:1006F0009091D2018436910539F48BB380958BBBF0
:100700001092D2011092D1010895FC01808190E0F5
:10071000019663E070E08DD380830895FC019081A1
:100720009F5F993210F4908308958AE08083089542
:10073000FC0190819F5F963010F49083089581E0D2
:1007400080830895FC0190819F5F933310F4908320
:1007500008958AE0808308951F920F920FB60F923A
:1007600011242F933F938F939F9386E082BF81E064
:100770008093D4018091CE018823E1F08091CC0157
:100780009091CD0101969093CD018093CC01209161
:10079000CA013091CB018217930761F41092CE0108
:1007A0001092CD011092CC011092CB011092CA018F
:1007B0001BBC1ABC8091D1019091D20101969093FB
:1007C000D2018093D1018091CF019091D001019607
:1007D0009093D0018093CF019F918F913F912F9162
:1007E0000F900FBE0F901F9018958F929F92AF920F
:1007F000BF92CF92DF92EF92FF920F931F93CF930E
:10080000DF93CDB7DEB7D701FC011082FB01108268
:1008100081E0FA01808382E0F90180838FE0F801B2
:100820008083F9018081982F990F890F982F990F54
:10083000990F890F8C938EE1F6018083F501108268
:10084000F80120818C9190E0820F911DF6012081AA
:10085000820F911DF401918380831092D601109232
:10086000D5011092D2011092D1011092D0011092B4
:10087000CF011092D4011092D301DF91CF911F913B
:100880000F91FF90EF90DF90CF90BF90AF909F902F
:100890008F90089586E082BF83B7846083BF87B757
:1008A000816087BF0895F6DF9ED210DFB4D21CDCD2
:1008B00062DC18DF78940895CF93DF93EC0163E056
:1008C00070E080E090E014DC892B69F0888191E091
:1008D000811190E09883811104C065DC81E08BBBBD
:1008E00002C0E1DF8ADCDF91CF91089566E070E01D
:1008F00083E090E0FDDB892BD1F047DC8091D501CE
:1009000091E0811190E09093D501811109C0E2E856
:10091000F0E0808191818093C80111821082089556
:100920008091C80190E090938300809382000895A5
:10093000DF92EF92FF920F931F93CF93DF93CDB788
:10094000DEB728970FB6F894DEBF0FBECDBF8C017F
:100950007B01D42E88E0E5EBF1E0DE0111960190F9
:100960000D928A95E1F764E070E081E090E0C0DBF1
:10097000892B99F00ADCF801808190E0880F991F9B
:10098000D701A80FB91FFE01E80FF91F0180F281FE
:10099000E02D8D919C9109953EC065E070E082E06C
:1009A00090E0A6DB892B01F1F80180818F5F8083C5
:1009B000843071F481E08093D60180831092D2015B
:1009C0001092D1014D2D50E050938300409382004E
:1009D00081E090E0F801008002C0880F991F0A941E
:1009E000E2F78BBBD2DB17C066E070E083E090E0FB
:1009F0007FDB892B81F0F801808181118150F80122
:100A0000808321E030E0A90102C0440F551F8A9580
:100A1000E2F74BBBBADB28960FB6F894DEBF0FBEE9
:100A2000CDBFDF91CF911F910F91FF90EF90DF909D
:100A30000895CF93DF9300D01F92CDB7DEB7FC01AE
:100A400086E9898384E68A8382E38B838091D1015E
:100A50009091D201883E93403CF01092D2011092C6
:100A6000D10181E08093D3012091CF013091D00159
:100A7000DE01A60FB11D11968C9190E02817390761
:100A80005CF01092D0011092CF01808190E001962D
:100A900066E070E0CED180830F900F900F90DF91D1
:100AA000CF910895CF92DF92EF92FF920F93CF9361
:100AB000DF937C01EB016A01C901602FBADF8091ED
:100AC000D301882309F48BC0D7018C91833031F096
:100AD000E2E6F0E0908180EC892780831092D301D8
:100AE000F7018081823009F5EA81FB81208189E864
:100AF000289F812D1124869586958695982F990F8C
:100B0000890F982F990F990F890F281B41F4809115
:100B1000C70190E0909383008093820006C022304A
:100B200021F41092830010928200D701EC91F0E042
:100B3000E150F048EE0FFF1FEC0FFD1F0190F08118
:100B4000E02D808181508083F60180819181019721
:100B500091838083EC91F0E0E150F048EE0FFF1FAD
:100B6000EC0FFD1F0190F081E02D8081823041F477
:100B7000E2E8F0E0808191818093C70111821082C8
:100B8000D7012C91822F90E081509048880F991FB7
:100B9000C80FD91FE881F9818081811120C02F5FA2
:100BA0002C9381E090E002C0880F991F2A95E2F70C
:100BB0008BBB8C91833049F48091C70190E088967B
:100BC00090938300809382000AC0843041F4109295
:100BD0008300109282001BBA82E08093D601DF91DD
:100BE000CF910F91FF90EF90DF90CF900895CF932A
:100BF000DF93CDB7DEB76B970FB6F894DEBF0FBEAD
:100C0000CDBF19821A8281E08B8382E08C838FE0D2
:100C10008D838EE18E838F8318869E012B5F3F4FDD
:100C20003A872987CE0106969C878B8701969E87F7
:100C30008D874BE450E0588B4F8740E5498B44E665
:100C40004A8B48E74B8BAE014D5F5F4F5D8B4C8B02
:100C50003F8B2E8B21503109398F288F9B8F8A8FA4
:100C6000712CCE01019628DE8981811119C01BDE0D
:100C7000CE010F964C0107975C0101976C0101971B
:100C80007C018E010B5F1F4F9E012C5F3F4FAE0119
:100C90004D5F5F4FBE016E5F7F4F0597A6DDE1CFD1
:100CA0008091D601811138C08B81E1E1F0E0EC0F39
:100CB000FD1FE80FF11D4081BE016C5E7F4FCE012C
:100CC000029636DE8C81682F660F680F862F880F9C
:100CD000880F680F6E838D8170E0680F711D8F81A2
:100CE000680F711D788B6F87762E8091D4018823D1
:100CF00009F4B7CF1092D401EA81F0E0EE0FFF1FA4
:100D000081E090E08C0F9D1FE80FF91F0388F489A4
:100D1000E02D80811EDCA5CF813081F5E7DD80915B
:100D2000D50181110DC00B819E01285F3F4FAE019F
:100D3000415F5F4FBE01675F7F4FCE010296B2DE1B
:100D40008091D401882309F48CCF1092D4014F856F
:100D50005889EA81F0E03197EE0FFF1F81E090E0C3
:100D60008C0F9D1FE80FF91F0084F185E02D608135
:100D700070E0888520E090E0CEDA73CF823009F011
:100D800070CF89EC91E063DAB1DC8091D4018823E3
:100D900051F01092D401472D50E0888521E060E0A9
:100DA00070E090E0B8DA8091C901882309F459CF46
:100DB0001092C90178DDCE010F964C0107975C01B6
:100DC00001976C0101977C018E010B5F1F4F9E0103
:100DD0002C5F3F4FAE014D5F5F4FBE016E5F7F4F97
:100DE000059703DD3ECF82B1886282B9ABE8B0E0FF
:100DF0008C9181608C93EAE8F0E080818860808348
:100E00008C9188608C9380818360808310928300B2
:100E1000109282000895E1E6F0E08081806C80838A
:100E2000E2E6F0E080818F7380838081806480833C
:100E3000089597FB072E16F4009406D077FD08D08E
:100E400014D007FC05D03EF4909581959F4F0895EE
:100E5000709561957F4F0895EE0FFF1F0024001CD1
:100E60000BBE0790F691E02D0994AA1BBB1B51E124
:100E700007C0AA1FBB1FA617B70710F0A61BB70B0A
:100E8000881F991F5A95A9F780959095BC01CD01AF
:060E90000895F894FFCF65
:100E9600F6022403F6022403F602F4035303BC030A
:100EA600700400007707ED057004F4030000ED05FB
:100EB600AF04F403BC030000ED05F6022403F602BA
:100EC6002403F602F4035303BC03700400007707FF
:100ED600ED057004F4030000ED05BC03F403700493
:100EE600302FAA00AA00AA00AA00AA00AA00AA00F7
:100EF600AA0055015501AA00AA00AA0055015501EC
:100F0600AA00AA00AA0055015501AA00AA00AA0033
:100F1600AA00AA00AA00AA00AA00AA005501550123
:100F2600AA00AA00AA0055015501AA00AA00AA0013
:100F3600AA0200003F065B4F666D7D277F67800132
:0E0F4600020408102085038E039803A2030006
:00000001FF
